:020000040800F2
:100000000000022071220008E9170008F717000815
:10001000FD17000803180008091800080000000078
:100020000000000000000000000000000F180008A1
:100030001D180008000000002B18000839180008DF
:10004000C1220008C1220008C1220008C122000804
:10005000C1220008C1220008C1220008C1220008F4
:10006000C1220008C1220008C1220008C1220008E4
:10007000C1220008C1220008C1220008C1220008D4
:10008000C1220008C1220008C1220008C1220008C4
:10009000C1220008C1220008C1220008451800083A
:1000A000C1220008C1220008C1220008C1220008A4
:1000B000C1220008C1220008C1220008C122000894
:1000C000C1220008C1220008C1220008C122000884
:1000D000C1220008C1220008C1220008C122000874
:1000E000C1220008C1220008C1220008C122000864
:1000F000C1220008C1220008C1220008C122000854
:10010000C1220008C1220008C1220008C122000843
:10011000C1220008C1220008C1220008C122000833
:10012000C1220008C1220008C1220008C122000823
:10013000C1220008C1220008C1220008C122000813
:10014000C1220008C1220008C1220008C122000803
:10015000C1220008C1220008C1220008C1220008F3
:10016000C1220008C1220008C1220008C1220008E3
:10017000C1220008C1220008C122000800000000BE
:08018000C1220008C1220008A1
:1001880010B5054C237833B9044B13B10448AFF3C9
:1001980000800123237010BD3C00002000000000F7
:1001A800F079000808B5034B1BB103490348AFF3C6
:1001B800008008BD0000000040000020F079000821
:1001C800034613F8012B002AFBD1181A013870478F
:1001D80053B94AB9002908BF00281CBF4FF0FF31A6
:1001E8004FF0FF3000F072B9ADF1080C6DE904CEA4
:1001F80000F006F8DDF804E0DDE9022304B07047FA
:100208002DE9F047089E04468846002B4BD18A42C8
:10021800154667D9B2FA82F24AB1C2F1200701FA4B
:1002280002F320FA07F7954047EA030894404FEA9B
:10023800154E230CB8FBFEF71FFA85FC0EFB17883A
:1002480043EA084307FB0CF1994209D9EB1807F177
:10025800FF3080F01B81994240F21881023F2B4405
:100268005B1AA4B2B3FBFEF00EFB103344EA03445E
:1002780000FB0CFCA44509D92C1900F1FF3380F0D0
:100288000781A44540F2048102382C4440EA074023
:10029800A4EB0C0400271EB1D4400023C6E9004398
:1002A8003946BDE8F0878B4209D9002E00F0EB8073
:1002B8000027C6E9000138463946BDE8F087B3FA99
:1002C80083F7002F47D18B4202D3824200F2FA8093
:1002D800841A61EB030301209846002EE0D0C6E99A
:1002E8000048DDE702B9FFDEB2FA82F2002A40F0E8
:1002F8008F80491B4FEA154E1FFA85F80127B1FB7D
:10030800FEFC230C0EFB1C1143EA014308FB0CF115
:10031800994207D9EB180CF1FF3002D2994200F24A
:10032800CD808446591AA3B2B1FBFEF00EFB10141F
:1003380043EA044408FB00F8A04507D92C1900F14A
:10034800FF3302D2A04500F2B6801846A4EB080499
:1003580040EA0C409FE7C7F1200CBB4022FA0CFE94
:100368004EEA030E01FA07F420FA0CF521FA0CF311
:100378004FEA1E482543B3FBF8F92C0C08FB193348
:100388001FFA8EFA44EA034309FB0AF49C4202FA74
:1003980007F200FA07F10BD91EEB030309F1FF304E
:1003A80080F087809C4240F28480A9F1020973445E
:1003B8001B1BADB2B3FBF8F008FB103345EA03444E
:1003C80000FB0AFAA24508D91EEB040400F1FF332A
:1003D8006BD2A24569D90238744440EA0940A0FBAF
:1003E8000289A4EB0A044C45C2464B4654D351D06B
:1003F800002E69D0B1EB0A0564EB030404FA0CFC87
:10040800FD40FC404CEA0505C6E90054002747E7D3
:10041800C2F1200320FA03F7954001FA02F021FA0D
:1004280003F34FEA154E3843010CB3FBFEF71FFAEE
:1004380085F80EFB173341EA034107FB08F38B42AB
:1004480004FA02F407D9691807F1FF3C2FD28B424E
:100458002DD9023F2944CB1A81B2B3FBFEF00EFB23
:10046800103341EA034100FB08F38B4207D96918AE
:1004780000F1FF3C17D28B4215D902382944C91A1A
:1004880040EA07473BE73746304609E70746E7E6CD
:100498001846FBE64145ABD2B8EB020A69EB0E02FF
:1004A80001381346A4E76046E9E7184695E767462A
:1004B800D1E781467CE702382C4447E7ACF1020CCF
:1004C8002B442FE7384608E73746E9E6704700BF70
:1004D80080B58CB000AF07F11C0300221A605A6087
:1004E8009A60DA601A610023BB61564B1B6B554A50
:1004F80043F080031363534B1B6B03F08003BB6112
:10050800BB6900237B614F4B1B6B4E4A43F00403CE
:1005180013634C4B1B6B03F004037B617B69002363
:100528003B61484B1B6B474A43F001031363454B40
:100538001B6B03F001033B613B690023FB60414BEC
:100548001B6B404A43F0020313633E4B1B6B03F0E3
:100558000203FB60FB680023BB603A4B1B6B394A04
:1005680043F010031363374B1B6B03F01003BB609E
:10057800BB6800237B60334B1B6B324A43F0080394
:100588001363304B1B6B03F008037B607B6801220D
:1005980002212D4802F0D2F900224FF400412B48E5
:1005A80002F0CCF900224FF47041294802F0C6F954
:1005B80000224021244802F0C1F92023FB61254B89
:1005C8003B6200237B6207F11C031946224802F0B4
:1005D8001BF84223FB6101233B6200237B62022359
:1005E800BB6207F11C031946174802F00DF84FF4D7
:1005F8000043FB6101233B6200237B620223BB6251
:1006080007F11C031946114801F0FEFF4FF470432F
:10061800FB6101233B6200237B620223BB6207F17B
:100628001C0319460A4801F0EFFF00220021172099
:1006380001F0B3FF172001F0CCFF00BF3037BD46F3
:1006480080BD00BF00380240000402400010024094
:10065800000C0240000021100008024090B587B04D
:1006680000AF0346FB710023FB750023BB822E23DA
:100678003B61FB79184601F00AFD0346FB810DE05A
:10068800FA89BB8A13449AB2FB791146184601F0DD
:1006980062FB0346FB75BB8A0133BB82FB7D2F2BB4
:1006A800EED1FA89BB8A1344FB81FA89FB7911469A
:1006B800184601F050FB0346FB75FB7D202B10D13B
:1006C800FB79DB007A4A13447A491A460B4603CB76
:1006D800106051601B881381FB79774A0021D1543F
:1006E80025E00023BB82FA89BB8A13449AB2BC8AEC
:1006F800FB791146184601F02EFB03461A466F4B4C
:100708001A55BB8A6D4AD35C202B03D0BB8A0133B0
:10071800BB82E8E700BFBB8A684A0021D154FB7955
:10072800DB00634A13446549184607F043F9FB792F
:10073800DB005F4A134401221946614806F0DCF9E0
:1007480003461A465F4B1A705E4B1B78002B43D149
:10075800FB79DB00564A13443969184607F01DF93E
:10076800B860BB680133BB6003225749B86807F01B
:1007780029F90346002B08D1FB794F4A0221D154AD
:10078800FB79524A4F2142F8231003225049B86896
:1007980007F018F90346002B09D1FB79464A0321D3
:1007A800D154FB79494A2F2142F8231008E0FB79FC
:1007B800414A0021D154FB79444A2C2142F82310A4
:1007C800FB79424A52F823103D4BDA68FB790A4418
:1007D8003E4941F8232012E0FB79374A0121D154E0
:1007E800FB793A4A5A2142F82310FB79374A52F8E2
:1007F8002320FB7902F22512344941F82320FB79A2
:10080800324A52F82330334A128892B2B3FBF2F3D9
:100818009AB2FB79013291B22F4A22F81310FB7970
:100828002A4A52F823302B4A128892B2B3FBF2F1CB
:1008380002FB01F29A1AFB7991B2284A22F81310A6
:10084800FB79264A32F81330002B0FD1FB79214A65
:10085800128891B2214A22F81310FB791E4A32F805
:100868001320013A91B21C4A22F81310FA79FB7945
:10087800194931F812101A4A22F81310FB79164A4E
:1008880032F81330012B04D1FB79184600F02AF80E
:1008980009E0FB79104A32F81330012B03D9FB79B0
:1008A800184600F027F900BF1C37BD4690BD00BFB1
:1008B800CC020020087A000878030020A82800202D
:1008C800101500207C250020147A00088C020020D6
:1008D800187A000800000020AC02002080030020E5
:1008E800BC02002080B586B000AF0346FB71002330
:1008F800FB7300233B82FB79724AD35C002B0AD03E
:10090800FB79704AD35C022B05D0FB796D4AD35C26
:10091800032B40F08680FB796A4AD35C022B0BD00C
:10092800032B05D0002B0BD1674B684A1A6007E0F0
:10093800654B674A1A6003E0634B664A1A6000BF5A
:10094800614B1B681846FFF73BFC0346BB81624BB3
:10095800DB68BB82FB79184601F0BEFB03467B824D
:10096800BA89BB8A13449AB27B8A13447B827A8AF7
:10097800FB791146184601F0D4FBFB79184601F0C3
:10098800ABFB03467B8255484F4B1B68BA89194617
:1009980006F0F0FFBB89798AF879514A01F028F905
:1009A8007A8ABB8913447B82BB8A5B0A9BB2FB733E
:1009B8000023FB822FE0FA8AFB7B013B9A4203DA91
:1009C8004FF400733B8201E0BB8A3B82FB8A5B02E7
:1009D8001946414806F063FC03461A46414B1A7013
:1009E8003E493A8A404B3C4806F052FA03461A46BA
:1009F8003C4B1A703B8A798AF879394A01F0F8F841
:100A08007A8A3B8A13447B82BA8A3B8AD31ABB828E
:100A1800FB8A0133FB82FB7B9BB2FA8A9A42CAD9D2
:100A28003DE05A23BB8140F22513BB82FB7918466F
:100A380001F052FB03467B82BA89BB8A13449AB2FF
:100A48007B8A13447B827A8AFB791146184601F027
:100A580068FBFB79184601F03FFB03467B821F4881
:100A6800BB891A46214906F085FFBB89798AF8793E
:100A78001B4A01F0BDF87A8ABB8913447B82174868
:100A8800BB8A1A461A4906F075FFBB8A798AF87933
:100A9800134A01F0ADF87A8ABB8A13447B82FB794A
:100AA800184601F0C4FAFB79184601F0D8FA0A484A
:100AB80006F0CBFBFB79184601F096FB00BF183710
:100AC800BD4680BD78030020740300206C7A0008BE
:100AD800EC7A00089C7A0008101500202B290020C9
:100AE800282900207C250020D00400201C7B000839
:100AF800787B000880B586B000AF0346FB71002301
:100B0800FB7300233B82FB795A4AD35C022B0BD040
:100B1800032B05D0002B0BD1574B584A1A6007E01E
:100B2800554B574A1A6003E0534B564A1A6000BFA8
:100B3800514B1B681846FFF743FB0346BB81524BDA
:100B48001B889AB2BB89D31ABB82FB79184601F07D
:100B5800C3FA03467B82BA89BB8A13449AB27B8A5A
:100B680013447B827A8AFB791146184601F0D9FA38
:100B7800FB79184601F0B0FA03467B8243483E4BA6
:100B88001B68BA89194606F0F5FEBB89798AF87997
:100B98003F4A01F02DF87A8ABB8913447B82BB8ACD
:100BA8005B0A9BB2FB730023FB822FE0FA8AFB7B74
:100BB800013B9A4203DA4FF400733B8201E0BB8A9F
:100BC8003B82FB8A5B021946324806F068FB034603
:100BD8001A46314B1A702D493A8A304B2D4806F087
:100BE80057F903461A462C4B1A703B8A798AF879CA
:100BF800274A00F0FDFF7A8A3B8A13447B82BA8A2F
:100C08003B8AD31ABB82FB8A0133FB82FB7B9BB2F4
:100C1800FA8A9A42CAD9FB79184601F008FAFB7990
:100C2800184601F01CFAFB791D4A32F81320013AE4
:100C380091B21B4A22F81310FB79194A32F8133083
:100C4800012B04D9FB79184600F02EF803E0FB7954
:100C5800184600F0D7F80C4B1B889BB21A46BB8984
:100C6800D21AFB7911460F4A42F8231000BF1837F1
:100C7800BD4680BD78030020740300206C7A00080C
:100C8800EC7A00089C7A0008000000202B2900203C
:100C980028290020101500207C250020D0040020E1
:100CA800AC0200209003002080B586B000AF034658
:100CB800FB710023FB750023FB814A4B1B887B8259
:100CC800FB79184601F008FA03463B823A8A7B8A88
:100CD80013443B823A8AFB791146184601F021FAFF
:100CE800FB79184601F0F8F903463B827B8A5B0AD8
:100CF8009BB2FB757B8AC3F308039BB2002B02D11E
:100D0800FB7D013BFB750023BB8235E0BA8AFB7D86
:100D1800013B9A4203DA4FF40073FB8101E07B8ABE
:100D2800FB81BB8A5B021946FB792F4A52F82330B4
:100D38000B4419462D4806F0B2FA03461A462C4BC6
:100D48001A702C49FA892C4B284806F0A1F803465A
:100D58001A46274B1A70FB89398AF879274A00F016
:100D680047FF3A8AFB8913443B827A8AFB89D31A64
:100D78007B82BB8A0133BB82FB7D9BB2BA8A9A42D3
:100D8800C4D9FB79184601F052F9FB79184601F0ED
:100D980066F9FB791A4A32F81320013A91B2184AD7
:100DA80022F81310FB79164A32F81330012B04D9B4
:100DB800FB791846FFF778FF03E0FB79184600F047
:100DC80021F8084B1B889BB21946FB79064A52F852
:100DD8002320FB790A44044941F8232000BF18372F
:100DE800BD4680BD000000209003002010150020A3
:100DF8007C2500202B290020D00400202829002051
:100E0800AC02002080B586B000AF0346FB7100231A
:100E1800FB750023FB81FB793B4A32F813307B8258
:100E2800FB79184601F058F903463B823A8A7B8AD7
:100E380013443B823A8AFB791146184601F071F94E
:100E4800FB79184601F048F903463B827B8A5B0A26
:100E58009BB2FB757B8AC3F308039BB2002B02D1BC
:100E6800FB7D013BFB750023BB8235E0BA8AFB7D25
:100E7800013B9A4203DA4FF40073FB8101E07B8A5D
:100E8800FB81BB8A5B021946FB79204A52F8233062
:100E98000B4419461E4806F002FA03461A461D4B33
:100EA8001A701D49FA891D4B194805F0F1FF0346D0
:100EB8001A46184B1A70FB89398AF879184A00F0D3
:100EC80097FE3A8AFB8913443B827A8AFB89D31AB4
:100ED8007B82BB8A0133BB82FB7D9BB2BA8A9A4272
:100EE800C4D90B4806F0B1F9FB79184601F09FF810
:100EF800FB79184601F0B3F8FB79184601F074F94C
:100F080000BF1837BD4680BD800300209003002035
:100F1800101500207C2500202B290020D00400205B
:100F28002829002080B500AF01F0C8F900F01AF8B0
:100F3800FFF7CEFA00F022FB00F09EFC00F054FB15
:100F480003F0AEFA00F09EF800F0E6FA00F006FDB5
:100F5800034B1B78002BFBD0002000F01BFFF7E7AA
:100F6800B003002080B594B000AF07F12003302211
:100F78000021184606F009FD07F10C0300221A604B
:100F88005A609A60DA601A610023BB60274B1B6CB9
:100F9800264A43F080531364244B1B6C03F08053A0
:100FA800BB60BB6800237B60214B1B68204A43F46D
:100FB800804313601E4B1B6803F480437B607B688F
:100FC80001233B624FF480337B620223BB634FF4FF
:100FD8008003FB6304233B6448237B640223BB64D4
:100FE8000323FB6407F12003184601F0D9FC0346EC
:100FF800002B01D000F03AF80F23FB6002233B617D
:1010080000237B614FF48053BB610023FB6107F130
:101018000C030221184601F033FF0346002B01D0D0
:1010280000F024F800BF5037BD4680BD00380240AC
:101038000070004080B483B000AF0346FB80FB889B
:10104800202B03D0074B1B78002B05D0064B012221
:101058001A70044B00221A7000BF0C37BD465DF8A9
:10106800047B704702000020B003002080B500AF69
:1010780001224FF48041024801F060FCFEE700BF06
:10108800000C024090B583B000AF6C4B00221A7080
:10109800FA2001F085F96A4802F0E4F801224FF4D9
:1010A8000041684801F04AFC0023BB8007E000F0DB
:1010B80003F9B7F904309BB201339BB2BB80B7F98F
:1010C8000430092BF3DD00224FF400415D4801F0A4
:1010D80035FC0021402000F01BF90346012B40F0AD
:1010E800A58000F0E9F84FF4D571482000F010F918
:1010F8000346012B62D10023BB8010E0B7F90440FE
:1011080000F0CDF803461A4607F10803234403F814
:10111800082CB7F904309BB201339BB2BB80B7F9F6
:101128000430032BEADDBB78012B40F08180FB788B
:10113800AA2B7DD142F6E063BB8005E0B7F9043005
:101148009BB2013B9BB2BB80B7F90430002B07D0A0
:101158004FF08041E92000F0DBF80346002BEDD189
:10116800B7F90430002B63D000217A2000F0D0F8C2
:101178000346002B5CD10023BB8010E0B7F9044084
:1011880000F08DF803461A4607F10803234403F8D4
:10119800082CB7F904309BB201339BB2BB80B7F976
:1011A8000430032BEADD3B7803F04003002B01D029
:1011B8000C2200E00422214B1A7039E00021E920BA
:1011C80000F0A6F80346012B05D81C4B02221A7022
:1011D800E923FB7104E0194B01221A704123FB71CA
:1011E80046F2A813BB8005E0B7F904309BB2013B77
:1011F8009BB2BB80B7F90430002B07D0FB790021E4
:10120800184600F085F80346002BEDD1B7F90430F5
:10121800002B07D04FF40071502000F079F80346F6
:10122800002B05D0054B00221A7001E0FFF71EFFC6
:10123800002318460C37BD4690BD00BFB4250020DA
:10124800B82700200010024080B586B002AF0346E0
:10125800FB710023FB7307F10F02F91D4FF4805354
:1012680000930123064802F09EFA0346002B02D0A1
:10127800032000F065F9FB7B18461037BD4680BD9A
:10128800B827002080B582B000AF0346FB71FB7918
:101298001846FFF7D9FF00BF0837BD4680BD80B5A7
:1012A80082B000AFFF20FFF7CFFF0346FB71FB7949
:1012B80018460837BD4680BD80B500AFFF20FFF750
:1012C800C3FF00BF80BD80B582B000AF0023FB80A4
:1012D800FFF7E5FF03467B71FB880133FB807B79D1
:1012E800FF2B04D0FB884FF6FF729342F0D1FB88A6
:1012F8004FF6FF72934201D1012305E07B79FF2B62
:1013080014BF01230023DBB218460837BD4680BD51
:1013180080B584B000AF03463960FB7197F9073098
:10132800002B0EDAFB7903F07F03FB710021772095
:10133800FFF7EEFF0346BB73BB7B012B01D9BB7BD9
:101348004BE001224FF40041264801F0F7FAFFF77D
:10135800A6FF00224FF40041224801F0EFFAFFF700
:101368009EFFFB791846FFF78DFF3B681B0EDBB22B
:101378001846FFF787FF3B681B0CDBB21846FFF7E0
:1013880081FF3B681B0ADBB21846FFF77BFF3B680F
:10139800DBB21846FFF776FF0123FB73FB79402B7E
:1013A80001D19523FB73FB79482B01D18723FB736C
:1013B800FB7B1846FFF766FF0A23FB73FFF76FFFF7
:1013C8000346BB7397F90E30002B05DAFB7B013B14
:1013D800FB73FB7B002BF1D1BB7B18461037BD4656
:1013E80080BD00BF0010024090B585B000AF7860A6
:1013F800396000237B730023FB8139685120FFF794
:1014080087FF03467B737B7B002B01D005232DE0F0
:10141800FFF752FFFFF743FF03467B73FB89013356
:10142800FB817B7BFE2B04D0FB894FF6FF72934236
:10143800F0D1FB894FF6FF72934201D1052315E0E5
:101448000023FB8109E0FB897A68D418FFF727FF9E
:1014580003462370FB890133FB81FB89B3F5007FC9
:10146800F1D3FFF729FFFFF727FF002318461437AA
:10147800BD4690BD80B584B000AF786039603968EA
:101488005820FFF745FF03467B737B7B002B01D079
:1014980006233DE0FFF710FFFE20FFF7F3FE0023D1
:1014A800FB8109E0FB897A6813441B781846FFF72B
:1014B800E9FEFB890133FB81FB89B3F5007FF1D39A
:1014C800FFF7FAFEFFF7F8FEFFF7E9FE03467B7326
:1014D8007B7B03F00503052B01D0062318E00023CE
:1014E800FB81FFF7DCFE03467B73FB890133FB813D
:1014F8007B7BFF2B04D0FB894FF6FF729342F0D120
:10150800FB894FF6FF72934201D1062300E00023C6
:1015180018461037BD4680BD80B500AF0022064989
:10152800064805F0A3FA0346002B02D0012000F07C
:1015380007F80023184680BD0C150020D4040020AD
:1015480080B582B000AF0346FB71FB79012B06D151
:1015580001224FF48041084801F0F0F907E0012228
:101568004FF40051044801F0E9F9002300E0FEE7D8
:1015780018460837BD4680BD000C024080B500AF54
:10158800174B184A1A60164B4FF482725A60144B64
:1015980000229A60124B0022DA60114B00221A6175
:1015A8000F4B00225A610E4B4FF400729A610C4B9C
:1015B8000022DA610A4B00221A62094B00225A62A1
:1015C800074B00229A62064B0A22DA62044801F0AD
:1015D80049FE0346002B01D0FFF748FD00BF80BD40
:1015E800102800200030014080B500AF174B184A82
:1015F8001A60164B4FF482725A60144B00229A609C
:10160800124B0022DA60114B00221A610F4B0022A4
:101618005A610E4B4FF400729A610C4B0822DA6142
:101628000A4B00221A62094B00225A62074B002219
:101638009A62064B0A22DA62044801F013FE034656
:10164800002B01D0FFF712FD00BF80BDB827002096
:101658000038004080B58CB000AF786007F11C03FB
:1016680000221A605A609A60DA601A617B681B6807
:10167800414A93422CD10023BB61404B5B6C3F4AEB
:1016880043F4805353643D4B5B6C03F48053BB615C
:10169800BB6900237B61394B1B6B384A43F001035C
:1016A8001363364B1B6B03F001037B617B69E023FB
:1016B800FB6102233B6200237B620323BB62052399
:1016C800FB6207F11C0319462D4800F09DFF4FE00F
:1016D8007B681B682B4A93424AD100233B61274B06
:1016E8001B6C264A43F480431364244B1B6C03F49D
:1016F80080433B613B690023FB60204B1B6B1F4A07
:1017080043F0040313631D4B1B6B03F00403FB60DE
:10171800FB680023BB60194B1B6B184A43F002039C
:101728001363164B1B6B03F00203BB60BB680C23EF
:10173800FB6102233B6200237B620323BB62052318
:10174800FB6207F11C0319460F4800F05DFF4FF4D8
:101758008063FB6102233B6200237B620323BB623D
:101768000523FB6207F11C031946084800F04CFFEB
:1017780000BF3037BD4680BD003001400038024010
:101788000000024000380040000802400004024007
:1017980080B582B000AF00237B60104B5B6C0F4AB2
:1017A80043F4804353640D4B5B6C03F480437B60CC
:1017B8007B6800233B60094B1B6C084A43F080534D
:1017C8001364064B1B6C03F080533B603B68072097
:1017D80000F0D8FE00BF0837BD4680BD0038024083
:1017E80080B400AF00BFBD465DF8047B704780B48D
:1017F80000AFFEE780B400AFFEE780B400AFFEE7BD
:1018080080B400AFFEE780B400AF00BFBD465DF80E
:10181800047B704780B400AF00BFBD465DF8047B11
:10182800704780B400AF00BFBD465DF8047B7047C9
:1018380080B500AF00F094FD00BF80BD80B500AF5B
:10184800202001F095F800BF80BD000080B400AFF3
:10185800084BD3F88830074A43F47003C2F888303D
:10186800044B4FF000629A6000BFBD465DF8047BF0
:10187800704700BF00ED00E080B500AF114B124A81
:101888001A60104B4FF461325A600E4B00229A6076
:101898000C4B0022DA600B4B00221A61094B0C2218
:1018A8005A61084B00229A61064B0022DA6105480A
:1018B80002F02CFA0346002B01D0FFF7D7FB00BF3C
:1018C80080BD00BF682800200044004080B58AB071
:1018D80000AF786007F1140300221A605A609A601A
:1018E800DA601A617B681B68194A93422BD100237E
:1018F8003B61184B1B6C174A43F400331364154BB8
:101908001B6C03F400333B613B690023FB60114B04
:101918001B6B104A43F0010313630E4B1B6B03F060
:101928000103FB60FB680C237B610223BB6100237E
:10193800FB6103233B6207237B6207F1140319460B
:10194800054800F061FE00BF2837BD4680BD00BFD6
:1019580000440040003802400000024080B582B0D8
:1019680000AF00224FF48051714800F0E7FF0023D8
:10197800FB71002202216F4800F0E0FF642000F0B4
:101988000FFD012202216B4800F0D8FF642000F00F
:1019980007FD2E21012000F059F90346BB71BB79E0
:1019A80003F00103002B00D1F3E700BF0123FB7113
:1019B800FB7980220021184600F0C8F8642000F066
:1019C800EFFC5D4B1A78FB790921184600F0BEF848
:1019D800594B5A78FB790A21184600F0B7F8564B4C
:1019E8009A78FB790B21184600F0B0F8524BDA7858
:1019F800FB790C21184600F0A9F84F4B1A79FB79AE
:101A08000D21184600F0A2F84B4B5A79FB790E21AC
:101A1800184600F09BF8494B1A78FB7901211846C3
:101A280000F094F8454B5A78FB790221184600F0EB
:101A38008DF8424B9A78FB790321184600F086F816
:101A48003E4BDA78FB790421184600F07FF83C4BCE
:101A58001A78FB790521184600F078F8384B5A783F
:101A6800FB790621184600F071F8354B9A78FB7916
:101A78000721184600F06AF8314BDA78FB7908211B
:101A8800184600F063F82F4B1A78FB790F21184697
:101A980000F05CF82B4B5A78FB791021184600F0BF
:101AA80055F8284B9A78FB791121184600F04EF822
:101AB800244BDA78FB791221184600F047F8FB79B5
:101AC80001221821184600F041F80923FB7100F0A3
:101AD8005DFA1D4B1B881B0A9BB2DAB2FB79042105
:101AE800184600F033F8184B1B88DAB2FB79052149
:101AF800184600F02BF805E001224FF400510C487D
:101B080000F01CFF002000F050FA0346002BF3D130
:101B180000224FF40051064800F010FF01224FF454
:101B28008051034800F00AFF00BF0837BD4680BD5A
:101B3800000C024000040240180000200C000020A5
:101B480010000020080000201400002080B584B098
:101B580000AF0346FB710B46BB801346BB71BB88C5
:101B68001B0A9BB2DBB23B73BB88DBB27B73FB798E
:101B780043F00403DBB2BB73BB79FB730022402143
:101B8800094800F0DBFE07F10C014FF0FF33042297
:101B9800064801F0CBFB01224021034800F0CEFEAD
:101BA80000BF1037BD4680BD000402401028002049
:101BB80080B582B000AF78600B467B800022402160
:101BC800094800F0BBFE7A884FF0FF337968074870
:101BD80001F0ACFB01224021034800F0AFFE00BF3A
:101BE8000837BD4680BD00BF000402401028002011
:101BF80080B586B000AFBA601A460346FB730B4641
:101C0800BB811346FB80BB687B61FB7B5B015BB2DE
:101C180043F014035BB2DAB27B699A70BB891B0A82
:101C28009BB21AB2BB891B021BB213431BB29AB2F6
:101C38007B691A80FB8803339BB219467869FFF7E2
:101C4800B7FF00BF1837BD4680BD000080B588B01B
:101C580002AF03460A46FB711346BB80BB881B0ACA
:101C68009BB2DBB23B74BB88DBB27B74FB79BB7481
:101C78000023FB74002240210C4800F05FFE07F1AE
:101C88000C0207F110014FF0FF33009304230848BA
:101C980001F089FD01224021044800F04FFEFB7B42
:101CA800FB75FB7D18461837BD4680BD0004024011
:101CB8001028002080B582B000AF78600B467B808A
:101CC800002240210C4800F039FE4FF0FF33032278
:101CD80079680A4801F02AFB7A884FF0FF3379685F
:101CE800064801F057FC01224021034800F026FE77
:101CF80000BF0837BD4680BD000402401028002000
:101D080080B586B000AFBA601A460346FB730B462F
:101D1800BB811346FB80BB687B61FB7B5B015BB2CD
:101D280043F018035BB2DAB27B699A70BB891B0A6D
:101D38009BB21AB2BB891B021BB213431BB29AB2E5
:101D48007B691A80FB8819467869FFF7B3FF00BFE3
:101D58001837BD4680BD80B584B000AF03460A463B
:101D6800FB711346BB80FB795B015BB243F019033F
:101D78005BB2FB7300F00AF9BA88FB7B1146184680
:101D8800FFF764FF0346BB73BB7B18461037BD469D
:101D980080BD000080B584B000AF0346FB7100230E
:101DA800FB73FB795B015BB243F009035BB2BB7366
:101DB80000F0ECF817210120FFF748FF03467B737A
:101DC8007B7B03F00103002B5BD000F0DFF8BB7BCB
:101DD80002211846FFF73AFF0346FB73FA7BBB7BE9
:101DE80002211846FFF7B2FE284B1B7823F07F0329
:101DF800DAB2264B1A70FB7B03F00103002B0CD0E0
:101E0800224B1B7843F00203DAB2204B1A700122EE
:101E18004FF400411E4800F091FDFB7B03F00203E4
:101E2800002B06D0194B1B7843F00103DAB2174B8D
:101E38001A70FB7B03F01003002B06D0134B1B78A2
:101E480043F00403DAB2114B1A70FB7B03F004036E
:101E5800002B06D00D4B1B7843F00803DAB20B4B6E
:101E68001A70FB7B03F00803002B06D0074B1B7886
:101E780043F01003DAB2054B1A70FB79184600F0EC
:101E880009F800BF1037BD4680BD00BFB003002071
:101E9800000C024080B582B000AF0346FB71244BB2
:101EA8001B7803F00203002B08D001224FF40041F5
:101EB800204800F043FD204B01221A701C4B1B7870
:101EC80003F00103002B0CD001224FF48041194884
:101ED80000F034FDFB79184600F086F9164B012214
:101EE8001A70134B1B7803F00403002B02D0124B1B
:101EF80001221A700E4B1B7803F00803002B06D042
:101F0800FB79184600F01AF80B4B01221A70084B9F
:101F18001B7803F01003002B06D0FB79184600F05D
:101F280063F9054B01221A7000BF0837BD4680BD12
:101F3800B0030020000C02400200002080B584B0ED
:101F480000AF0346FB710023FB81FB79184600F0C4
:101F58009EF80346FB81F989F8790523094AFFF7BA
:101F6800CFFE05220849074805F02CFD0346002B43
:101F780003D1FB791846FEF771FB00BF1037BD4649
:101F880080BD00BFA82800201C7A000880B582B058
:101F980000AF0023FB7100210120FFF757FE034625
:101FA800FB7100BF0837BD4680BD80B584B000AF67
:101FB8000346FB710023FB73FB795B015BB243F0C3
:101FC80009035BB2BB73FB790121184600F0CEF818
:101FD800FFF7DCFFBB7B03211846FFF737FE0346FC
:101FE800FB73FB7B132B05D0FB79184600F0E4F854
:101FF800012318E0BB7B022201211846FFF7A6FD4A
:10200800FFF7C4FFBB7B03211846FFF71FFE0346FB
:10201800FB73FB7B142B05D0FB79184600F0CCF83A
:10202800012300E0002318461037BD4680BD80B567
:1020380084B000AF0346FB71FB795B015BB243F0F0
:1020480009035BB2FB73FFF7A1FFFB7B4022012171
:102058001846FFF77BFD00BF1037BD4680BD80B531
:1020680084B000AF0346FB71FB795B015BB243F0C0
:1020780009035BB2FB73FFF789FFFB7B2022012179
:102088001846FFF763FD00BF1037BD4680BD90B509
:1020980085B000AF0346FB71FB795B015BB243F08F
:1020A80009035BB2FB73FFF771FFFB7B282118461E
:1020B800FFF7CCFD03461B021CB2FB7B2921184607
:1020C800FFF7C4FD03461BB223431BB2BB81BB8988
:1020D80018461437BD4690BD90B585B000AF03468D
:1020E800FB71FB795B015BB243F009035BB2FB73E5
:1020F800FFF74CFFFB7B24211846FFF7A7FD03469B
:102108001B021CB2FB7B25211846FFF79FFD0346E7
:102118001BB223431BB2BB81BB8918461437BD468B
:1021280090BD80B584B000AF03460A46FB711346E4
:10213800BB80FB795B015BB243F009035BB2FB73C5
:10214800FFF724FFBB881B0A9BB2DAB2FB7B242172
:102158001846FFF7FBFCBB88DAB2FB7B2521184643
:10216800FFF7F4FC00BF1037BD4680BD80B584B0D2
:1021780000AF03460A46FB711346BB800023FB737E
:10218800FB795B015BB243F009035BB2FB73FFF7BA
:10219800FDFEBB88DAB2FB7B00211846FFF7D6FCB0
:1021A800FFF7F4FEFB7B012201211846FFF7CEFC66
:1021B80000BF1037BD4680BD80B584B000AF034670
:1021C800FB71FB795B015BB243F009035BB2FB7304
:1021D800FFF7DCFEFB7B102201211846FFF7B6FC57
:1021E80000BF1037BD4680BD80B584B000AF034640
:1021F800FB71FB795B015BB243F009035BB2FB73D4
:10220800FB791846FFF7D8FFFFF7C0FE144B1B8871
:102218001B0A9BB2DAB2FB7B04211846FFF796FC37
:102228000F4B1B88DAB2FB7B05211846FFF78EFCA3
:1022380005E001224FF400510A4800F07FFBFB79CA
:102248001846FFF7B2FE0346002BF2D100224FF4E6
:102258000051044800F072FB00BF1037BD4680BD36
:1022680014000020000C0240DFF834D0002103E005
:102278000C4B5B58435004310B480C4B42189A42A4
:10228800F6D30B4A02E0002342F8043B094B9A427A
:10229800F9D3FFF7DBFA05F049FBFEF743FE704779
:1022A8000000022008810008000000203C000020F7
:1022B8003C000020A04B0020FEE7000080B500AFE6
:1022C8000E4B1B680D4A43F4007313600B4B1B68DD
:1022D8000A4A43F480631360084B1B68074A43F4B7
:1022E80080731360032000F04DF9002000F008F817
:1022F800FFF74EFA0023184680BD00BF003C02409D
:1023080080B582B000AF7860124B1A68124B1B7808
:1023180019464FF47A73B3FBF1F3B2FBF3F31846A3
:1023280000F065F90346002B01D001230EE07B681D
:102338000F2B0AD8002279684FF0FF3000F02DF9F2
:10234800064A7B681360002300E00123184608371B
:10235800BD4680BD0400002024000020200000208D
:1023680080B400AF064B1B781A46064B1B68134413
:10237800044A136000BFBD465DF8047B704700BF88
:10238800240000202C2B002080B400AF034B1B68D6
:102398001846BD465DF8047B704700BF2C2B002013
:1023A80080B584B000AF7860FFF7EEFFB8607B6857
:1023B800FB60FB68B3F1FF3F05D0094B1B781A4659
:1023C800FB681344FB6000BFFFF7DEFF0246BB68F3
:1023D800D31AFA689A42F7D800BF1037BD4680BDB5
:1023E8002400002080B485B000AF78607B6803F0DB
:1023F8000703FB600C4BDB68BB60BA684FF6FF0352
:102408001340BB60FB681A02BB68134343F0BF6309
:1024180043F40033BB60044ABB68D36000BF143781
:10242800BD465DF8047B704700ED00E080B400AF66
:10243800044BDB681B0A03F007031846BD465DF82A
:10244800047B704700ED00E080B483B000AF034622
:10245800FB7197F90730002B0BDBFB7903F01F02A8
:10246800074997F907305B09012000FA02F241F8A1
:10247800232000BF0C37BD465DF8047B704700BFC2
:1024880000E100E080B483B000AF03463960FB711F
:1024980097F90730002B0ADB3B68DAB20C4997F949
:1024A80007301201D2B20B4483F800230AE03B68DC
:1024B800DAB20849FB7903F00F03043B1201D2B2E8
:1024C8000B441A7600BF0C37BD465DF8047B704795
:1024D80000E100E000ED00E080B489B000AFF860F2
:1024E800B9607A60FB6803F00703FB61FB69C3F11D
:1024F8000703042B28BF0423BB61FB690433062BA5
:1025080002D9FB69033B00E000237B614FF0FF32F7
:10251800BB6902FA03F3DA43BB681A407B699A4045
:102528004FF0FF317B6901FA03F3D9437B680B4015
:10253800134318462437BD465DF8047B70470000F6
:1025480080B582B000AF78607B68013BB3F1807FD3
:1025580001D301230FE00A4A7B68013B53600F2136
:102568004FF0FF30FFF78EFF054B00229A60044BB7
:1025780007221A60002318460837BD4680BD00BFF1
:1025880010E000E080B582B000AF78607868FFF7AF
:1025980029FF00BF0837BD4680BD80B586B000AFB3
:1025A8000346B9607A60FB7300237B61FFF73EFF47
:1025B80078617A68B9687869FFF78EFF024697F9FB
:1025C8000F3011461846FFF75DFF00BF1837BD46AC
:1025D80080BD80B582B000AF0346FB7197F9073024
:1025E8001846FFF731FF00BF0837BD4680BD80B5EC
:1025F80082B000AF78607868FFF7A2FF03461846FC
:102608000837BD4680BD000080B489B000AF78604F
:10261800396000237B6100233B610023BB610023F9
:10262800FB616BE10122FB6902FA03F37B613B6802
:102638001B687A6913403B613A697B699A4240F0AA
:102648005A813B685B68012B0BD03B685B68022BA7
:1026580007D03B685B68112B03D03B685B68122B83
:1026680030D17B689B68BB61FB695B00032202FA7F
:1026780003F3DB43BA691340BB613B68DA68FB6963
:102688005B0002FA03F3BA691343BB617B68BA695A
:102698009A607B685B68BB610122FB6902FA03F3FD
:1026A800DB43BA691340BB613B685B681B0903F0F5
:1026B8000102FB6902FA03F3BA691343BB617B6841
:1026C800BA695A607B68DB68BB61FB695B000322FF
:1026D80002FA03F3DB43BA691340BB613B689A68AB
:1026E800FB695B0002FA03F3BA691343BB617B68B9
:1026F800BA69DA603B685B68022B03D03B685B68A9
:10270800122B23D1FB69DA087B68083253F8223090
:10271800BB61FB6903F007039B000F2202FA03F376
:10272800DB43BA691340BB613B681A69FB6903F074
:1027380007039B0002FA03F3BA691343BB61FB6901
:10274800DA087B680832B96943F822107B681B688D
:10275800BB61FB695B00032202FA03F3DB43BA693E
:102768001340BB613B685B6803F00302FB695B00D5
:1027780002FA03F3BA691343BB617B68BA691A604A
:102788003B685B6803F08053002B00F0B4800023A3
:10279800FB605F4B5B6C5E4A43F4804353645C4B65
:1027A8005B6C03F48043FB60FB685A4AFB699B0837
:1027B800023352F82330BB61FB6903F003039B002B
:1027C8000F2202FA03F3DB43BA691340BB617B684B
:1027D800514A93422BD07B68504A934225D07B685C
:1027E8004F4A93421FD07B684E4A934219D07B6868
:1027F8004D4A934213D07B684C4A93420DD07B6874
:102808004B4A934207D07B684A4A934201D1072337
:102818000EE008230CE006230AE0052308E0042361
:1028280006E0032304E0022302E0012300E0002382
:10283800FA6902F0030292009340BA691343BB613C
:102848003449FB699B080233BA6941F823203A4BA3
:102858001B68BB613B69DB43BA691340BB613B68DA
:102868005B6803F48033002B03D0BA693B691343D8
:10287800BB61314ABB6913602F4B5B68BB613B6925
:10288800DB43BA691340BB613B685B6803F4003300
:10289800002B03D0BA693B691343BB61264ABB6965
:1028A8005360254B9B68BB613B69DB43BA691340A6
:1028B800BB613B685B6803F48013002B03D0BA69E3
:1028C8003B691343BB611C4ABB6993601A4BDB68C5
:1028D800BB613B69DB43BA691340BB613B685B681A
:1028E80003F40013002B03D0BA693B691343BB619F
:1028F800114ABB69D360FB690133FB61FB690F2B8C
:102908007FF690AE00BF2437BD465DF8047B704764
:102918000038024000380140000002400004024034
:1029280000080240000C024000100240001402405F
:1029380000180240001C0240003C014080B483B0F3
:1029480000AF78600B467B8013467B707B78002B4A
:1029580003D07A887B689A6103E07B881A047B68D5
:102968009A6100BF0C37BD465DF8047B70470000D4
:1029780080B582B000AF0346FB80084B5A69FB88DC
:102988001340002B06D0054AFB885361FB88184684
:10299800FEF750FB00BF0837BD4680BD003C014034
:1029A80080B586B000AF78607B68002B01D1012329
:1029B8005BE27B681B6803F00103002B75D0A34B17
:1029C8009B6803F00C03042B0CD0A04B9B6803F00E
:1029D8000C03082B12D19D4B5B6803F48003B3F5FD
:1029E800800F0BD1994B1B6803F40033002B5BD08D
:1029F8007B685B68002B57D1012336E27B685B68F4
:102A0800B3F5803F06D1914B1B68904A43F480335D
:102A180013601DE07B685B68B3F5A02F0CD18B4B6E
:102A28001B688A4A43F480231360884B1B68874AD3
:102A380043F4803313600BE0844B1B68834A23F410
:102A480080331360814B1B68804A23F48023136012
:102A58007B685B68002B13D0FFF796FC386108E0B1
:102A6800FFF792FC02463B69D31A642B01D9032372
:102A7800FBE1764B1B6803F40033002BF0D014E025
:102A8800FFF782FC386108E0FFF77EFC02463B69ED
:102A9800D31A642B01D90323E7E16C4B1B6803F4B9
:102AA8000033002BF0D100E000BF7B681B6803F007
:102AB8000203002B63D0654B9B6803F00C03002BCB
:102AC8000BD0624B9B6803F00C03082B1CD15F4BA7
:102AD8005B6803F48003002B16D15C4B1B6803F082
:102AE8000203002B05D07B68DB68012B01D0012392
:102AF800BBE1564B1B6823F0F8027B681B69DB00BF
:102B0800524913430B603AE07B68DB68002B20D006
:102B18004F4B01221A60FFF737FC386108E0FFF7D6
:102B280033FC02463B69D31A022B01D903239CE1EB
:102B3800464B1B6803F00203002BF0D0434B1B6885
:102B480023F0F8027B681B69DB00404913430B60E4
:102B580015E03F4B00221A60FFF716FC386108E0C9
:102B6800FFF712FC02463B69D31A022B01D9032353
:102B78007BE1364B1B6803F00203002BF0D17B6826
:102B88001B6803F00803002B30D07B685B69002BBF
:102B980016D0304B01221A60FFF7F6FB386108E0C7
:102BA800FFF7F2FB02463B69D31A022B01D9032334
:102BB8005BE1264B5B6F03F00203002BF0D015E0BE
:102BC800244B00221A60FFF7DFFB386108E0FFF7AB
:102BD800DBFB02463B69D31A022B01D9032344E1EC
:102BE8001A4B5B6F03F00203002BF0D17B681B6864
:102BF80003F00403002B00F0A0800023FB75134BA7
:102C08001B6C03F08053002B0FD10023BB600F4BCC
:102C18001B6C0E4A43F0805313640C4B1B6C03F07F
:102C28008053BB60BB680123FB750B4B1B6803F427
:102C38008073002B21D1084B1B68074A43F480732B
:102C48001360FFF7A1FB386111E000BF00380240B4
:102C580000004742800E474200700040FFF794FB97
:102C680002463B69D31A022B01D90323FDE0814BAD
:102C78001B6803F48073002BF0D07B689B68012BE2
:102C880006D17D4B1B6F7C4A43F0010313671CE0A0
:102C98007B689B68052B0CD1774B1B6F764A43F0FA
:102CA80004031367744B1B6F734A43F001031367E4
:102CB8000BE0714B1B6F704A23F0010313676E4BD7
:102CC8001B6F6D4A23F0040313677B689B68002B16
:102CD80015D0FFF759FB38610AE0FFF755FB0246AC
:102CE8003B69D31A41F28832934201D90323BCE0ED
:102CF800614B1B6F03F00203002BEED014E0FFF7CB
:102D080043FB38610AE0FFF73FFB02463B69D31AF1
:102D180041F28832934201D90323A6E0564B1B6F38
:102D280003F00203002BEED1FB7D012B05D1524BA2
:102D38001B6C514A23F0805313647B689B69002BFA
:102D480000F092804C4B9B6803F00C03082B5CD07E
:102D58007B689B69022B41D1484B00221A60FFF720
:102D680013FB386108E0FFF70FFB02463B69D31AF3
:102D7800022B01D9032378E03F4B1B6803F0007353
:102D8800002BF0D17B68DA697B681B6A1A437B6881
:102D98005B6A9B011A437B689B6A5B08013B1B04C7
:102DA8001A437B68DB6A1B06334913434B60334B7A
:102DB80001221A60FFF7E8FA386108E0FFF7E4FA41
:102DC80002463B69D31A022B01D903234DE02A4B53
:102DD8001B6803F00073002BF0D045E0274B00225E
:102DE8001A60FFF7D1FA386108E0FFF7CDFA02461A
:102DF8003B69D31A022B01D9032336E01E4B1B680B
:102E080003F00073002BF0D12EE07B689B69012B47
:102E180001D1012329E0184B5B68FB60FB6803F4D0
:102E280080027B68DB699A421CD1FB6803F03F0291
:102E38007B681B6A9A4215D1FA6847F6C07313403B
:102E48007A68526A93420DD1FB6803F440327B687A
:102E58009B6A9A4206D1FB6803F070627B68DB6A62
:102E68009A4201D0012300E0002318461837BD46D6
:102E780080BD00BF0070004000380240600047423B
:102E880080B584B000AF786039607B68002B01D1D1
:102E98000123CCE0684B1B6803F00F033A689A42A1
:102EA8000CD9654B3A68D2B21A70634B1B6803F0B1
:102EB8000F033A689A4201D00123B8E07B681B6887
:102EC80003F00203002B20D07B681B6803F0040387
:102ED800002B05D0594B9B68584A43F4E053936044
:102EE8007B681B6803F00803002B05D0534B9B68D5
:102EF800524A43F460439360504B9B6823F0F002BE
:102F08007B689B684D4913438B607B681B6803F0A3
:102F18000103002B44D07B685B68012B07D1474B2A
:102F28001B6803F40033002B19D101237FE07B6871
:102F38005B68022B03D07B685B68032B07D13F4B90
:102F48001B6803F00073002B09D101236FE03B4B92
:102F58001B6803F00203002B01D1012367E0374B04
:102F68009B6823F003027B685B68344913438B60DA
:102F7800FFF70AFAF8600AE0FFF706FA0246FB686C
:102F8800D31A41F28832934201D903234FE02B4BE5
:102F98009B6803F00C027B685B689B009A42EBD14C
:102FA800254B1B6803F00F033A689A420CD2224B58
:102FB8003A68D2B21A70204B1B6803F00F033A68C4
:102FC8009A4201D0012332E07B681B6803F00403B6
:102FD800002B08D0194B9B6823F4E0527B68DB6810
:102FE800164913438B607B681B6803F00803002BAA
:102FF80009D0124B9B6823F460427B681B69DB0095
:103008000E4913438B6000F021F801460B4B9B6877
:103018001B0903F00F030A4AD35C21FA03F3094A98
:103028001360094B1B681846FFF76AF90023184616
:103038001037BD4680BD00BF003C0240003802404A
:10304800A07C00080400002020000020F0B585B016
:1030580000AF00237B600023FB6000233B6000235C
:10306800BB60634B9B6803F00C03042B07D0082B51
:1030780008D0002B40F0B4805E4BBB60B3E05E4BE1
:10308800BB60B0E05A4B5B6803F03F037B60584B72
:103098005B6803F48003002B4AD0554B5B689B099F
:1030A8004FF0000440F2FF114FF0000203EA01055F
:1030B80004EA0206294632464FF000034FF00004A6
:1030C800540144EAD1644B0119462246491B62EB7C
:1030D80006024FF000034FF00004940144EA9164A3
:1030E8008B015B1A64EB02044FF000014FF0000201
:1030F800E20042EA5372D9000B4614465B1944EBCE
:1031080006044FF000014FF00002620242EAD35277
:1031180059020B461446184621467B684FF00004B6
:103128001A462346FDF754F803460C46FB6049E06F
:103138002F4B5B689B094FF0000440F2FF114FF0E2
:10314800000203EA010504EA0206294632464FF066
:1031580000034FF00004540144EAD1644B011946BE
:103168002246491B62EB06024FF000034FF00004B1
:10317800940144EA91648B015B1A64EB02044FF0FA
:1031880000014FF00002E20042EA5372D9000B46F8
:1031980014465B1944EB06044FF000014FF000029F
:1031A800A20242EA935299020B4614461846214657
:1031B8007B684FF000041A462346FDF709F80346DA
:1031C8000C46FB600A4B5B681B0C03F003030133DE
:1031D8005B003B60FA683B68B2FBF3F3BB6002E05C
:1031E800044BBB6000BFBB6818461437BD46F0BD32
:1031F800003802400024F40000127A0080B400AFC6
:10320800034B1B681846BD465DF8047B704700BF3A
:103218000400002080B500AFFFF7F0FF0146054B22
:103228009B689B0A03F00703034AD35C21FA03F364
:10323800184680BD00380240B07C000880B500AF59
:10324800FFF7DCFF0146054B9B685B0B03F00703A8
:10325800034AD35C21FA03F3184680BD00380240C4
:10326800B07C000880B582B000AF78607B68002B26
:1032780001D1012356E07B6800229A627B6893F8AB
:103288005130DBB2002B06D17B68002283F8502036
:103298007868FEF7DFF97B68022283F851207B68A3
:1032A8001B681A687B681B6822F040021A607B68FA
:1032B8005A687B689B681A437B68DB681A437B689B
:1032C8001B691A437B685B691A437B689B6903F433
:1032D80000731A437B68DB691A437B681B6A42EAFE
:1032E80003017B689A6A7B681B680A431A607B68DB
:1032F8009B691B0C03F004017B685A6A7B681B6896
:103308000A435A607B681B68DA697B681B6822F489
:103318000062DA617B6800225A657B68012283F8C3
:103328005120002318460837BD4680BD80B588B0B7
:1033380000AFF860B9603B601346FB800023FB7761
:10334800FB6893F85030012B01D102231EE1FB6882
:10335800012283F85020FFF717F8B861FB88FB8239
:10336800FB6893F85130DBB2012B02D00223FB77C4
:1033780003E1BB68002B02D0FB88002B02D101239C
:10338800FB77FAE0FB68032283F85120FB680022F0
:103398005A65FB68BA681A63FB68FA889A86FB68FC
:1033A800FA88DA86FB6800229A63FB6800229A870B
:1033B800FB680022DA87FB6800225A64FB68002257
:1033C8001A64FB689B68B3F5004F07D1FB681B685C
:1033D8001A68FB681B6842F480421A60FB681B6825
:1033E8001B6803F04003402B07D0FB681B681A6872
:1033F800FB681B6842F040021A60FB68DB68B3F5A3
:10340800006F4BD1FB685B68002B02D0FB8A012B55
:103418003ED1FB681B6B1A88FB681B68DA60FB6887
:103428001B6B9A1CFB681A63FB68DB8E9BB2013B23
:103438009AB2FB68DA862BE0FB681B689B6803F08E
:103448000203022B12D1FB681B6B1A88FB681B68EE
:10345800DA60FB681B6B9A1CFB681A63FB68DB8EDF
:103468009BB2013B9AB2FB68DA8611E0FEF78CFF4B
:103478000246BB69D31A3A689A4203D83B68B3F14B
:10348800FF3F02D13B68002B02D10323FB7774E096
:10349800FB68DB8E9BB2002BCED14CE0FB685B68EF
:1034A800002B02D0FB8A012B40D1FB681A6BFB680A
:1034B8001B680C3312781A70FB681B6B5A1CFB686C
:1034C8001A63FB68DB8E9BB2013B9AB2FB68DA8613
:1034D8002CE0FB681B689B6803F00203022B13D1E6
:1034E800FB681A6BFB681B680C3312781A70FB6850
:1034F8001B6B5A1CFB681A63FB68DB8E9BB2013B93
:103508009AB2FB68DA8611E0FEF73EFF0246BB6915
:10351800D31A3A689A4203D83B68B3F1FF3F02D105
:103528003B68002B02D10323FB7726E0FB68DB8E88
:103538009BB2002BCDD1BA693968F86800F0A4FBBA
:103548000346002B02D0FB6820225A65FB689B6863
:10355800002B0AD100233B61FB681B68DB683B61D9
:10356800FB681B689B683B613B69FB685B6D002BD4
:1035780002D00123FB7700E000BFFB68012283F83B
:103588005120FB68002283F85020FB7F1846203723
:10359800BD4680BD80B588B002AFF860B9603B60B9
:1035A8001346FB800023FB75FB685B68B3F5827FDD
:1035B80012D1FB689B68002B0ED1FB68042283F8AC
:1035C8005120FA883B6800931346BA68B968F868CE
:1035D80000F0E9F80346E2E0FB6893F85030012B6D
:1035E80001D10223DBE0FB68012283F85020FEF7BB
:1035F800CBFE3861FB6893F85130DBB2012B02D067
:103608000223FB75C2E0BB68002B02D0FB88002BAD
:1036180002D10123FB75B9E0FB68042283F851202D
:10362800FB6800225A65FB68BA689A63FB68FA88E7
:103638009A87FB68FA88DA87FB6800221A63FB68B6
:1036480000229A86FB680022DA86FB6800221A6448
:10365800FB6800225A64FB689B68B3F5004F07D1EA
:10366800FB681B681A68FB681B6822F480421A60B2
:10367800FB681B681B6803F04003402B07D0FB68FE
:103688001B681A68FB681B6842F040021A60FB68F6
:10369800DB68002B62D12EE0FB681B689B6803F097
:1036A8000103012B15D1FB681B6803F10C02FB68B1
:1036B8009B6B1278D2B21A70FB689B6B5A1CFB6822
:1036C8009A63FB68DB8F9BB2013B9AB2FB68DA878F
:1036D80011E0FEF759FE02463B69D31A3A689A424E
:1036E80003D83B68B3F1FF3F02D13B68002B02D1FE
:1036F8000323FB754AE0FB68DB8F9BB2002BCBD121
:1037080031E0FB681B689B6803F00103012B13D1B0
:10371800FB681B68DA68FB689B6B92B21A80FB68CF
:103728009B6B9A1CFB689A63FB68DB8F9BB2013B1F
:103738009AB2FB68DA8711E0FEF726FE02463B697B
:10374800D31A3A689A4203D83B68B3F1FF3F02D1D3
:103758003B68002B02D10323FB7517E0FB68DB8F66
:103768009BB2002BCDD13A693968F86800F027FA86
:103778000346002B02D0FB6820225A65FB685B6D6C
:10378800002B02D00123FB7500E000BFFB6801227B
:1037980083F85120FB68002283F85020FB7D1846EF
:1037A8001837BD4680BD80B58CB000AFF860B960F1
:1037B8007A607B800123FB62002387F82B30FB684B
:1037C80093F85030012B01D102238AE1FB680122D2
:1037D80083F85020FEF7D8FD7862FB6893F85130E3
:1037E80087F82330FB685B68FB617B887B8397F8ED
:1037F8002330012B0FD0FB69B3F5827F07D1FB681B
:103808009B68002B03D197F82330042B03D00223A5
:1038180087F82B305BE1BB68002B05D07B68002B59
:1038280002D07B88002B03D1012387F82B304EE18F
:10383800FB6893F85130DBB2042B03D0FB680522F8
:1038480083F85120FB6800225A65FB687A689A63FE
:10385800FB687A88DA87FB687A889A87FB68BA688F
:103868001A63FB687A88DA86FB687A889A86FB6826
:1038780000221A64FB6800225A64FB681B681B68F4
:1038880003F04003402B07D0FB681B681A68FB68ED
:103898001B6842F040021A60FB68DB68B3F5006FF2
:1038A80078D1FB685B68002B02D07B8B012B66D13B
:1038B800FB681B6B1A88FB681B68DA60FB681B6B6C
:1038C8009A1CFB681A63FB68DB8E9BB2013B9AB2B9
:1038D800FB68DA8653E0FB681B689B6803F0020309
:1038E800022B1BD1FB68DB8E9BB2002B16D0FB6A28
:1038F800012B13D1FB681B6B1A88FB681B68DA6005
:10390800FB681B6B9A1CFB681A63FB68DB8E9BB217
:10391800013B9AB2FB68DA860023FB62FB681B68EE
:103928009B6803F00103012B19D1FB68DB8F9BB265
:10393800002B14D0FB681B68DA68FB689B6B92B29B
:103948001A80FB689B6B9A1CFB689A63FB68DB8F89
:103958009BB2013B9AB2FB68DA870123FB62FEF750
:1039680013FD02467B6AD31ABA6B9A4207D8BB6B1F
:10397800B3F1FF3F03D0032387F82B30A7E0FB68A0
:10398800DB8E9BB2002BA6D1FB68DB8F9BB2002B92
:10399800A1D17CE0FB685B68002B02D07B8B012BFC
:1039A8006BD1FB681A6BFB681B680C3312781A70B2
:1039B800FB681B6B5A1CFB681A63FB68DB8E9BB2A7
:1039C800013B9AB2FB68DA8657E0FB681B689B6884
:1039D80003F00203022B1CD1FB68DB8E9BB2002B89
:1039E80017D0FB6A012B14D1FB681A6BFB681B68A4
:1039F8000C3312781A70FB681B6B5A1CFB681A632D
:103A0800FB68DB8E9BB2013B9AB2FB68DA86002327
:103A1800FB62FB681B689B6803F00103012B19D14B
:103A2800FB68DB8F9BB2002B14D0FB681B68DA683D
:103A3800FB689B6BD2B21A70FB689B6B5A1CFB68C5
:103A48009A63FB68DB8F9BB2013B9AB2FB68DA870B
:103A58000123FB62FEF798FC02467B6AD31ABA6B15
:103A68009A4203D8BB6BB3F1FF3F02D1BB6B002B6B
:103A780003D1032387F82B3029E0FB68DB8E9BB248
:103A8800002BA2D1FB68DB8F9BB2002B9DD17A6AF9
:103A9800B96BF86800F0F8F80346002B06D001234C
:103AA80087F82B30FB6820225A6510E0FB689B687A
:103AB800002B0BD100237B61FB681B68DB687B61F3
:103AC800FB681B689B687B617B6900E000BFFB6843
:103AD800012283F85120FB68002283F8502097F8D0
:103AE8002B3018463037BD4680BD80B584B000AF56
:103AF800F860B9603B601346FB714CE03B68B3F17A
:103B0800FF3F48D0FEF740FC0246BB69D31A3A682B
:103B18009A4202D93B68002B3DD1FB681B685A6862
:103B2800FB681B6822F0E0025A60FB685B68B3F52B
:103B3800827F11D1FB689B68B3F5004F04D0FB6806
:103B48009B68B3F5806F07D1FB681B681A68FB6830
:103B58001B6822F040021A60FB689B6AB3F5005F9D
:103B68000FD1FB681B681A68FB681B6822F40052B7
:103B78001A60FB681B681A68FB681B6842F40052ED
:103B88001A60FB68012283F85120FB68002283F841
:103B9800502003230FE0FB681B689A68BB6813403A
:103BA800BA689A420CBF01230023DBB21A46FB799C
:103BB8009A42A3D1002318461037BD4680BD80B570
:103BC80086B002AFF860B9607A60FB685B68B3F5ED
:103BD800827F11D1FB689B68B3F5004F04D0FB6866
:103BE8009B68B3F5806F07D1FB681B681A68FB6890
:103BF8001B6822F040021A60FB685B68B3F5827F9D
:103C08002AD1FB689B68B3F5806F12D07B6800935C
:103C1800BB6800228021F868FFF767FF0346002B86
:103C28002DD0FB685B6D43F02002FB685A650323C7
:103C380026E07B680093BB6800220121F868FFF743
:103C480054FF0346002B1AD0FB685B6D43F020023B
:103C5800FB685A65032313E07B680093BB68002266
:103C68000121F868FFF741FF0346002B07D0FB68E6
:103C78005B6D43F02002FB685A65032300E00023D4
:103C880018461037BD4680BD80B588B002AFF860D1
:103C9800B9607A601B4B1B681B4AA2FB03235B0DB0
:103CA8004FF47A7202FB03F37B61FB685B68B3F540
:103CB800827F12D17B680093BB6800228021F8685C
:103CC800FFF713FF0346002B16D0FB685B6D43F02C
:103CD8002002FB685A6503230FE07B69002B0AD09A
:103CE8007B69013B7B61FB681B689B6803F0800371
:103CF800802BF2D000E000BF002318461837BD46DD
:103D080080BD00BF04000020819F5E1680B582B090
:103D180000AF78607B68002B01D101233FE07B680E
:103D280093F83930DBB2002B06D17B68002283F888
:103D380038207868FDF7CAFD7B68242283F839208B
:103D48007B681B68DA687B681B6822F40052DA60BB
:103D5800786800F029F87B681B681A697B681B681B
:103D680022F490421A617B681B685A697B681B6859
:103D780022F02A025A617B681B68DA687B681B6834
:103D880042F40052DA607B680022DA637B68202202
:103D980083F839207B68202283F83A2000231846CC
:103DA8000837BD4680BD00002DE9F04F85B000AF53
:103DB80078607B681B681B6923F440517B68DA686C
:103DC8007B681B680A431A617B689A687B681B6971
:103DD8001A437B685B691A437B68DB691343FB60A2
:103DE8007B681B68DB6823F4164323F00C037A68AE
:103DF8001268F9680B43D3607B681B685B6923F41E
:103E080040717B689A697B681B680A435A617B68C2
:103E1800DB69B3F5004F40F08B817B681B68C14AB2
:103E2800934205D07B681B68BF4A934240F0BD802F
:103E3800FFF704FAB860BB681D464FF00006A846B5
:103E4800B14618EB080349EB09049846A14618EB5C
:103E5800050849EB06094FF000014FF000024FEA50
:103E6800C90242EA58724FEAC8018846914618EBDF
:103E7800050049EB06017B685B681D464FF00006AC
:103E88006B1946EB06041A462346FCF7A1F90346CC
:103E98000C461A46A54BA3FB02235B094FEA0318FD
:103EA800BB681D464FF00006A946B24619EB090348
:103EB8004AEB0A049946A24619EB05094AEB060A99
:103EC8004FF000014FF000024FEACA0242EA59726D
:103ED8004FEAC9018946924619EB05004AEB0601EB
:103EE8007B685B681D464FF000066B1946EB0604BD
:103EF8001A462346FCF76CF903460C461A468B4BC8
:103F0800A3FB02135B09642101FB03F3D31ADB0053
:103F18003233864AA2FB03235B095B0003F4F87380
:103F28009844BB681D464FF00006A946B24619EBF7
:103F380009034AEB0A049946A24619EB05094AEB1C
:103F4800060A4FF000014FF000024FEACA0242EAA7
:103F580059724FEAC9018946924619EB05004AEBA6
:103F680006017B685B681D464FF000066B1946EB3F
:103F780006041A462346FCF72BF903460C461A4654
:103F88006A4BA3FB02135B09642101FB03F3D31AF9
:103F9800DB003233654AA2FB03235B0903F0070207
:103FA8007B681B6842449A606FE2FFF733F9B86098
:103FB800BB681D464FF00006A846B14618EB08033B
:103FC80049EB09049846A14618EB050849EB060990
:103FD8004FF000014FF000024FEAC90242EA58725E
:103FE8004FEAC8018846914618EB050049EB0601DF
:103FF8007B685B681D464FF000066B1946EB0604AC
:104008001A462346FCF7E4F803460C461A46474B83
:10401800A3FB02235B094FEA0318BB681D464FF058
:104028000006A946B24619EB09034AEB0A04994669
:10403800A24619EB05094AEB060A4FF000014FF0BA
:1040480000024FEACA0242EA59724FEAC901894698
:10405800924619EB05004AEB06017B685B681D4632
:104068004FF000066B1946EB06041A462346FCF788
:10407800AFF803460C461A462C4BA3FB02135B0908
:10408800642101FB03F3D31ADB003233274AA2FB76
:1040980003235B095B0003F4F8739844BB681D466F
:1040A8004FF00006A946B24619EB09034AEB0A0489
:1040B8009946A24619EB05094AEB060A4FF000019A
:1040C8004FF000024FEACA0242EA59724FEAC901A8
:1040D8008946924619EB05004AEB06017B685B6846
:1040E8001D464FF000066B1946EB06041A46234698
:1040F800FCF76EF803460C461A460C4BA3FB02135A
:104108005B09642101FB03F3D31ADB003233074A4E
:10411800A2FB03235B0903F007027B681B68424488
:104128009A60B2E100100140001401401F85EB5174
:104138007B681B68D74A934205D07B681B68D64AC0
:10414800934240F0D180FFF779F8B860BB689A468F
:104158004FF0000BD046D94618EB080349EB090489
:104168009846A14618EB0A0849EB0B094FF00001E5
:104178004FF000024FEAC90242EA58724FEAC801FA
:10418800884691461AEB08054BEB09067B685B6885
:1041980019464FF000024FF000034FF0000494005E
:1041A80044EA91748B001A46234628463146FCF7A8
:1041B8000FF803460C461A46B84BA3FB02235B09CB
:1041C8004FEA0318BB689B464FF0000CD946E246FD
:1041D80019EB09034AEB0A049946A24619EB0B09A5
:1041E8004AEB0C0A4FF000014FF000024FEACA02F6
:1041F80042EA59724FEAC901894692461BEB090502
:104208004CEB0A067B685B6819464FF000024FF0DA
:1042180000034FF00004940044EA91748B001A469E
:10422800234628463146FBF7D3FF03460C461A4679
:104238009A4BA3FB02135B09642101FB03F3D31A16
:104248001B013233954AA2FB03235B0903F0F003F9
:104258009844BB689B464FF0000CD946E24619EBE0
:1042680009034AEB0A049946A24619EB0B094AEBE3
:104278000C0A4FF000014FF000024FEACA0242EA6E
:1042880059724FEAC901894692461BEB09054CEB66
:104298000A067B685B6819464FF000024FF000037E
:1042A8004FF00004940044EA91748B001A462346A8
:1042B80028463146FBF78CFF03460C461A46774BD7
:1042C800A3FB02135B09642101FB03F3D31A1B014F
:1042D8003233724AA2FB03235B0903F00F027B68A7
:1042E8001B6842449A60D0E0FEF794FFB860BB6850
:1042F8009A464FF0000BD046D94618EB080349EB15
:1043080009049846A14618EB0A0849EB0B094FF037
:1043180000014FF000024FEAC90242EA58724FEA20
:10432800C801884691461AEB08054BEB09067B68DD
:104338005B6819464FF000024FF000034FF000048D
:10434800940044EA91748B001A4623462846314665
:10435800FBF73EFF03460C461A46504BA3FB0223CD
:104368005B094FEA0318BB689B464FF0000CD9461F
:10437800E24619EB09034AEB0A049946A24619EBEF
:104388000B094AEB0C0A4FF000014FF000024FEA0C
:10439800CA0242EA59724FEAC901894692461BEBA2
:1043A80009054CEB0A067B685B6819464FF000026A
:1043B8004FF000034FF00004940044EA91748B001E
:1043C8001A46234628463146FBF702FF03460C46A9
:1043D8001A46324BA3FB02135B09642101FB03F36A
:1043E800D31A1B0132332D4AA2FB03235B0903F0C6
:1043F800F0039844BB689B464FF0000CD946E24650
:1044080019EB09034AEB0A049946A24619EB0B0972
:104418004AEB0C0A4FF000014FF000024FEACA02C3
:1044280042EA59724FEAC901894692461BEB0905CF
:104438004CEB0A067B685B6819464FF000024FF0A8
:1044480000034FF00004940044EA91748B001A466C
:10445800234628463146FBF7BBFE03460C461A4660
:104468000E4BA3FB02135B09642101FB03F3D31A70
:104478001B013233094AA2FB03235B0903F00F0235
:104488007B681B6842449A60FFE700BF1437BD464B
:10449800BDE8F08F00100140001401401F85EB516A
:1044A80080B500AF0449054803F06AF903461A4687
:1044B800034B1A7000BF80BD302B0020280000205D
:1044C800342B002080B400AF00231846BD465DF8A9
:1044D800047B704780B582B000AF0346FB71FCF7E0
:1044E800D1FD0346002B14BF01230023DBB21A467B
:1044F800044B1A70034B1B78DBB218460837BD46CD
:1045080080BD00BF2500002080B483B000AF034603
:10451800FB71FB79002B14BF01230023DBB21A4681
:10452800054B1A70044B1B78DBB218460C37BD4696
:104538005DF8047B704700BF2500002080B584B07B
:1045480000AFB9607A603B600346FB73FB7B002BCE
:1045580002D13B68002B01D1042323E0134B1B78C5
:10456800DBB203F00103002B01D003231AE0104B48
:104578001B78DBB203F00403002B02D17B685B02DB
:104588007B603B68012B05D17968B868FCF72CFF84
:1045980000233B60FCF790FE3B68002B14BF01230F
:1045A8000023DBB218461037BD4680BD2500002029
:1045B800B425002080B584B000AFB9607A603B6054
:1045C8000346FB73FB7B002B02D13B68002B01D118
:1045D80004232CE0184B1B78DBB203F00103002BFB
:1045E80001D0032323E0144B1B78DBB203F0040350
:1045F800002B01D002231AE0104B1B78DBB203F02A
:104608000403002B02D17B685B027B603B68012BB3
:1046180005D17968B868FCF72DFF00233B60FCF7EB
:104628004BFE3B68002B14BF01230023DBB2184666
:104638001037BD4680BD00BF25000020B4250020EE
:1046480080B584B000AF03463A60FB710B46BB717E
:104658000123FB73FB79002B01D004232CE0184BBA
:104668001B78DBB203F00103002B01D0032323E006
:104678000123FB73BB79002B02D0022B0ED014E070
:1046880000224FF400410F48FEF758F9FCF71BFED3
:104698000346002B0CD10023FB7309E03B684FF461
:1046A80000721A800023FB7303E00423FB7300E00D
:1046B80000BFFCF701FEFB7B18461037BD4680BDE6
:1046C800250000200010024080B584B000AF0346EA
:1046D800FB71FB79084A9B0013445B685B68FA79B5
:1046E80005490A44127A104698470346FB73FB7B38
:1046F80018461037BD4680BD8002002080B584B0C2
:1047080000AF0346FB710023FB73FB790D4AD35CB2
:10471800002B11D1FB790B4A0121D154FB79094AAD
:104728009B0013445B681B68FA7906490A44127AAD
:10473800104698470346FB73FB7B18461037BD4667
:1047480080BD00BF8002002090B587B000AFB9607F
:104758007A603B600346FB73FB7B0A4A9B00134469
:104768005B689C68FB7B074A1344187A3B687A6845
:10477800B968A0470346FB75FB7D18461C37BD4644
:1047880090BD00BF8002002090B587B000AFB9602F
:104798007A603B600346FB73FB7B0A4A9B00134429
:1047A8005B68DC68FB7B074A1344187A3B687A68C5
:1047B800B968A0470346FB75FB7D18461C37BD4604
:1047C80090BD00BF8002002080B584B000AF0346D2
:1047D8003A60FB710B46BB71FB79094A9B00134495
:1047E8005B681B69FA7906490A44107AB9793A680C
:1047F80098470346FB73FB7B18461037BD4680BDC0
:104808008002002080B485B000AF78607B680133F7
:104818001B78FB81FB891B021AB27B681B781BB2D1
:1048280013431BB2FB81FB8918461437BD465DF85C
:10483800047B704780B485B000AF78607B68033331
:104848001B78FB60FB681B027A68023212781343FC
:10485800FB60FB681B027A68013212781343FB6025
:10486800FB681B027A6812781343FB60FB681846E2
:104878001437BD465DF8047B704780B483B000AF41
:1048880078600B467B807B685A1C7A607A88D2B243
:104898001A707B881B0A7B807B685A1C7A607A882E
:1048A800D2B21A7000BF0C37BD465DF8047B704762
:1048B80080B483B000AF786039607B685A1C7A6036
:1048C8003A68D2B21A703B681B0A3B607B685A1C74
:1048D8007A603A68D2B21A703B681B0A3B607B6800
:1048E8005A1C7A603A68D2B21A703B681B0A3B605D
:1048F8007B685A1C7A603A68D2B21A7000BF0C37CB
:10490800BD465DF8047B704780B487B000AFF8609F
:10491800B9607A60FB687B61BB683B617B68002B90
:104928000DD03A69531C3B617B69591C7961127837
:104938001A707B68013B7B607B68002BF1D100BF5C
:104948001C37BD465DF8047B704780B487B000AF64
:10495800F860B9607A60FB687B617B695A1C7A6190
:10496800BA68D2B21A707B68013B7B607B68002B07
:10497800F3D100BF1C37BD465DF8047B704780B497
:1049880089B000AFF860B9607A60FB68FB61BB680A
:10499800BB6100237B61FB695A1CFA611B781946CD
:1049A800BB695A1CBA611B78CB1A7B617B68013BD7
:1049B8007B607B68002B02D07B69002BEBD07B6986
:1049C80018462437BD465DF8047B704780B483B031
:1049D80000AF7860396002E07B6801337B607B68F8
:1049E8001B78002B05D07B681B781A463B689342DE
:1049F800F2D17B681B7818460C37BD465DF8047BFE
:104A08007047000080B485B000AF7860396000233B
:104A1800BB60BB68FB6029E0274AFB681B011344A5
:104A28001B68002B1DD0244AFB681B0113441A681D
:104A38007B681B689A4216D11F4AFB681B01134406
:104A480004331A687B689B689A420CD11A4AFB683F
:104A58001B01134408331A687B685B699A4202D1C8
:104A680007E00123BB60FB680133FB60FB68012B97
:104A7800D2D9FB68022B09D1BB68002B02D13B6855
:104A8800022B01D1002310E012230EE03B68002B1B
:104A980008D1094AFB681B0113440C331B88B3F582
:104AA800807F01D1102300E0002318461437BD464B
:104AB8005DF8047B704700BF6000002080B483B0BD
:104AC80000AF00237B6002E07B6801337B607B687A
:104AD800012B06D8094A7B681B0113441B68002B6D
:104AE800F2D17B68022B14BF01230023DBB21846E6
:104AF8000C37BD465DF8047B704700BF600000209E
:104B080080B485B000AF786039600023FB601FE097
:104B1800414AFB681B0113441A687B681B689A4268
:104B280013D13D4AFB681B01134404331A687B68A0
:104B38009B689A4209D1384AFB681B011344083321
:104B48001A687B685B699A4206D0FB680133FB6090
:104B5800FB68012BDCD900E000BFFB68022B32D1D7
:104B68000023FB6002E0FB680133FB60FB68012B5C
:104B780006D8294AFB681B0113441B68002BF2D195
:104B8800FB68022B01D1002340E07B681A682249A8
:104B9800FB681B010B441A607B689A681E49FB6816
:104BA8001B010B4404331A607B685A691A49FB6875
:104BB8001B010B4408331A60174AFB681B01134496
:104BC8000C3300221A803B68002B09D0124AFB687C
:104BD8001B0113440C331B88002B01D0002315E064
:104BE8003B68002B08D10C4AFB681B0113440C33AB
:104BF8001B8801339AB201E04FF480720649FB68C2
:104C08001B010B440C331A80FB6801331846143718
:104C1800BD465DF8047B70476000002080B485B015
:104C280000AF78607B68013B7B607B68012B25D8EF
:104C3800174A7B681B0113440C331B88FB81FB89D3
:104C4800B3F5807F01D10023FB81FB89002B02D0C3
:104C5800FB89013BFB810E4A7B681B0113440C3323
:104C6800FA891A80FB89002B05D1094A7B681B0148
:104C7800134400221A6000237B7301E002237B7334
:104C88007B7B18461437BD465DF8047B704700BF30
:104C98006000002080B485B000AF78600023FB601E
:104CA80010E00D4AFB681B0113441B687A689A429E
:104CB80005D1094AFB681B01134400221A60FB68EE
:104CC8000133FB60FB68012BEBD900BF1437BD46ED
:104CD8005DF8047B704700BF6000002080B586B097
:104CE80000AF78600023FB737B68DB78002B34D03F
:104CF8007B685B6B7B617B6858787B6803F1380164
:104D080001237A69FFF740FD0346002B02D00123F7
:104D1800FB7322E07B680022DA707B689B6A7A6901
:104D2800D21A7B681B6A9A4217D27B689B783B61D0
:104D380010E07B681B6A7A6913447B617B6858784A
:104D48007B6803F1380101237A69FFF71DFD3B6990
:104D5800013B3B613B69012BEBD8FB7B18461837BD
:104D6800BD4680BD80B584B000AF7860396000234F
:104D7800FB737B685B6B3A689A421BD07868FFF7D5
:104D8800ADFF0346FB73FB7B002B13D17B68587880
:104D98007B6803F1380101233A68FFF7D5FC034625
:104DA800002B04D04FF0FF333B600123FB737B687B
:104DB8003A685A63FB7B18461037BD4680BD000031
:104DC80080B584B000AF78607868FFF787FF034646
:104DD800FB73FB7B002B59D17B681B78032B49D1D4
:104DE8007B681B79012B45D17B6803F138007B6810
:104DF8009B891A460021FFF7A8FD7B68383303F525
:104E0800FF734AF655211846FFF737FD7B6838339C
:104E180021491846FFF74CFD7B68383303F5F273D8
:104E28001E491846FFF744FD7B68383303F5F472D2
:104E38007B689B6919461046FFF73AFD7B68383353
:104E480003F5F6727B685B6919461046FFF730FD7B
:104E58007B685B6A5A1C7B685A637B6858787B68F6
:104E680003F138017B685A6B0123FFF78DFC7B68DF
:104E780000221A717B685B78002200211846FFF730
:104E8800A3FC0346002B01D00123FB73FB7B1846D0
:104E98001037BD4680BD00BF5252614172724161F8
:104EA80080B483B000AF786039603B68023B3B60F8
:104EB8007B68DB69023B3A689A4201D3002308E029
:104EC8007B685B891A463B6803FB02F27B681B6BB5
:104ED800134418460C37BD465DF8047B704780B50F
:104EE80086B000AF786039607B681B683B613B68BF
:104EF800012B04D93B69DB693A689A4202D3012342
:104F08007B61B7E04FF0FF337B613B691B78022B75
:104F18005AD0032B7DD0012B40F0A2803B68FB6068
:104F2800FB685B08FA681344FB603B699A6A3B6953
:104F38009B891946FB68B3FBF1F31344194638699A
:104F4800FFF710FF0346002B40F08D80FB685A1CCA
:104F5800FA603A699289B3FBF2F102FB01F29B1AFB
:104F68003A69134493F83830BB603B699A6A3B69E5
:104F78009B891946FB68B3FBF1F31344194638695A
:104F8800FFF7F0FE0346002B6FD13B699B891A4659
:104F9800FB68B3FBF2F102FB01F29B1A3A69134476
:104FA80093F838301B021A46BB681343BB603B6852
:104FB80003F00103002B02D0BB681B0902E0BB68A9
:104FC800C3F30B037B6155E03B699A6A3B699B8994
:104FD8005B089BB219463B68B3FBF1F313441946CF
:104FE8003869FFF7BFFE0346002B40D13B6903F148
:104FF80038013B685B003A699289B3FBF2F002FB27
:1050080000F29B1A0B441846FFF7FCFB03467B6132
:1050180030E03B699A6A3B699B899B089BB21946B9
:105028003B68B3FBF1F3134419463869FFF79AFE5E
:105038000346002B1DD13B6903F138013B689B00F7
:105048003A699289B3FBF2F002FB00F29B1A0B4417
:105058001846FFF7EFFB034623F070437B6109E036
:1050680001237B6106E000BF04E000BF02E000BF4F
:1050780000E000BF7B6918461837BD4680BD90B573
:1050880089B000AFF860B9607A600223FB77BB682B
:10509800012B40F20681FB68DB69BA689A4280F00E
:1050A8000081FB681B78022B00F08880032B00F03E
:1050B800B080012B40F0F580BB68BB61BB695B0821
:1050C800BA691344BB61FB689A6AFB689B891946F5
:1050D800BB69B3FBF1F313441946F868FFF742FEC6
:1050E8000346FB77FB7F002B40F0D480FB6803F17D
:1050F8003801BB695A1CBA61FA689289B3FBF2F0AD
:1051080002FB00F29B1A0B447B61BB6803F00103AE
:10511800002B0DD07B691B785BB203F00F035AB2EA
:105128007B68DBB21B015BB213435BB2DBB201E00D
:105138007B68DBB27A691370FB680122DA70FB685E
:105148009A6AFB689B891946BB69B3FBF1F3134460
:105158001946F868FFF706FE0346FB77FB7F002B2E
:1051680040F09A80FB6803F13801FB689B891A4676
:10517800BB69B3FBF2F002FB00F29B1A0B447B61A4
:10518800BB6803F00103002B03D07B681B09DBB26B
:105198000EE07B691B785BB223F00F035AB27B6881
:1051A8001B0A5BB203F00F035BB213435BB2DBB2C3
:1051B8007A691370FB680122DA7072E0FB689A6AF8
:1051C800FB689B895B089BB21946BB68B3FBF1F38C
:1051D80013441946F868FFF7C5FD0346FB77FB7FC4
:1051E800002B5BD1FB6803F13801BB685B00FA68F0
:1051F8009289B3FBF2F002FB00F29B1A0B447A6827
:1052080092B211461846FFF738FBFB680122DA70A4
:1052180047E0FB689A6AFB689B899B089BB2194622
:10522800BB68B3FBF1F313441946F868FFF79AFD1E
:105238000346FB77FB7F002B32D17B6823F0704459
:10524800FB6803F13801BB689B00FA689289B3FBDD
:10525800F2F002FB00F29B1A0B441846FFF7EAFA39
:10526800034603F0704323437B60FB6803F1380176
:10527800BB689B00FA689289B3FBF2F002FB00F26C
:105288009B1A0B4479681846FFF712FBFB6801224A
:10529800DA7006E000BF04E000BF02E000BF00E0F3
:1052A80000BFFB7F18462437BD4690BD80B588B047
:1052B80000AFF860B9607A600023FB77FB681B6871
:1052C800BB61BB68012B04D9BB69DB69BA689A4228
:1052D80001D302234BE07B68002B0CD04FF0FF3248
:1052E8007968B869FFF7CBFE0346FB77FB7F002B95
:1052F80001D0FB7F3BE0B968F868FFF7F0FD786103
:105308007B69002B31D07B69012B01D102232EE070
:105318007B69B3F1FF3F01D1012328E00022B9687E
:10532800B869FFF7ACFE0346FB77FB7F002B01D083
:10533800FB7F1CE0BB699A69BB69DB69023B9A4247
:105348000BD2BB699B695A1CBB699A61BB691B7903
:1053580043F00103DAB2BB691A717B69BB60BB69B0
:10536800DB69BA689A42C6D300E000BF002318463A
:105378002037BD4680BD80B588B000AF7860396001
:105388007B681B683B613B68002B0DD13B695B69FF
:10539800BB61BB69002B04D03B69DB69BA699A42DF
:1053A8001BD30123BB6118E039687868FFF797FDC4
:1053B800F860FB68012B01D8012370E0FB68B3F1AA
:1053C800FF3F01D1FB686AE03B69DB69FA689A42F2
:1053D80001D2FB6863E03B68BB61BB69FB61FB69A9
:1053E8000133FB613B69DB69FA699A4207D30223FF
:1053F800FB61FA69BB699A4201D900234FE0F96958
:105408007868FFF76CFDF860FB68002B0ED0FB682E
:10541800012B03D0FB68B3F1FF3F01D1FB683EE0ED
:10542800FA69BB699A42DAD1002338E000BF4FF02D
:10543800FF32F9693869FFF722FE0346FB75FB7DE9
:10544800002B09D13B68002B06D0FA693968386906
:10545800FFF715FE0346FB75FB7D002B16D13B6954
:10546800FA695A613B699A693B69DB69023B9A426E
:1054780004D83B699B695A1E3B699A613B691B7951
:1054880043F00103DAB23B691A7107E0FB7D012B97
:1054980002D14FF0FF3300E00123FB61FB6918469E
:1054A8002037BD4680BD80B487B000AF78603960D2
:1054B8007B681B68FB607B68DB6A04333B61FB68C5
:1054C8009B891A463B68B3FBF2F3FA685289B3FB2F
:1054D800F2F37B613B691A1D3A611B68BB60BB68CC
:1054E800002B01D1002310E07A69BB689A4207D3E8
:1054F8007A69BB68D31A7B613B6904333B61E9E78E
:1055080000BF3B691A687B69134418461C37BD46BF
:105518005DF8047B704780B586B000AF786039606D
:105528007B681B683B613B68B3F5001F04D23B688E
:1055380003F01F03002B01D0022371E07B683A6857
:105548005A617B689B687B617B69002B06D13B694C
:105558001B78022B02D93B69DB6A7B617B69002BD4
:105568000CD13B685B093A691289934201D3022343
:1055780056E03B69DA6A7B68DA612DE03B695B8952
:105588001A463B699B8903FB02F3FB6019E07B68C1
:1055980079691846FFF7A3FC78617B69B3F1FF3F8F
:1055A80001D101233CE07B69012B04D93B69DB690C
:1055B8007A699A4201D3022332E03A68FB68D31A27
:1055C8003B603A68FB689A42E1D279693869FFF72B
:1055D80067FC02467B68DA617B687A699A617B6856
:1055E800DB69002B01D102231AE07B68DA693B6989
:1055F8009B8919463B68B3FBF1F31A447B68DA616F
:105608003B6903F138013B699B891A463B68B3FB48
:10561800F2F002FB00F29B1ACA187B681A62002398
:1056280018461837BD4680BD80B586B000AF786093
:1056380039607B681B68FB607B685B692033BB60F3
:105648007B68DB69002B03D0BB68B3F5001F01D36F
:105658000423BBE0FB689B891A46BB68B3FBF2F1E5
:1056680002FB01F29B1A002B40F09D807B68DB69EE
:105678005A1C7B68DA617B689B69002B0BD1BB687D
:105688005B09FA6812899342C0F08D807B6800221A
:10569800DA6104239AE0FB689B891A46BB68B3FB6E
:1056A800F2F3FA685289013A1340002B7BD17A68E9
:1056B8007B689B6919461046FFF711FC78617B6986
:1056C800012B01D8022381E07B69B3F1FF3F01D1AF
:1056D80001237BE0FB68DB697A699A4259D33B680E
:1056E800002B04D17B680022DA6104236EE07A681B
:1056F8007B689B6919461046FFF73DFE78617B6918
:10570800002B01D1072361E07B69012B01D1022322
:105718005CE07B69B3F1FF3F01D1012356E0F868F3
:10572800FFF7DCFA0346002B01D001234EE0FB68AB
:1057380003F13800FB689B891A460021FFF705F939
:1057480000233B617969F868FFF7AAFB0246FB680A
:105758005A6312E0FB680122DA70F868FFF7BEFAB4
:105768000346002B01D0012330E03B6901333B6144
:10577800FB685B6B5A1CFB685A63FB685B891A46BB
:105788003B699342E6D3FB685A6B3B69D21AFB68C4
:105798005A637B687A699A617969F868FFF780FBD0
:1057A80002467B68DA617B68BA685A61FB6803F174
:1057B8003801FB689B891A46BB68B3FBF2F002FB11
:1057C80000F29B1ACA187B681A6200231846183719
:1057D800BD4680BD80B586B000AF786039607B6813
:1057E8001B68FB6000217868FFF795FE0346FB7590
:1057F800FB7D002B2BD100233B617B68DB691946BD
:10580800F868FFF7AFFA0346FB75FB7D002B1DD147
:105818007B681B6A1B78E52B04D07B681B6A1B78A6
:10582800002B07D13B6901333B613A693B689A42D7
:1058380002D10CE000233B6101217868FFF7F4FEF8
:105848000346FB75FB7D002BD7D000E000BFFB7D36
:10585800042B01D10723FB75FB7D18461837BD467D
:1058680080BD80B584B000AF786039603B681A337A
:105878001846FEF7C7FF0346FB607B681B78032BBF
:1058880009D13B6814331846FEF7BCFF03461B04D6
:10589800FA681343FB60FB6818461037BD4680BDA5
:1058A80080B584B000AFF860B9607A60BB681A331D
:1058B8007A6892B211461846FEF7DFFFFB681B783C
:1058C800032B09D1BB6803F114027B681B0C9BB244
:1058D80019461046FEF7D1FF00BF1037BD4680BD00
:1058E80090B587B000AF786039603B681A331846C6
:1058F800FEF788FF0346002B01D0002359E03B68E0
:105908001B7803F03F035A1E13465B0013449B00A9
:1059180013447B610123FB8100233B6133E0274A69
:105928003B6913441B781A463B6813441846FEF734
:1059380069FF0346BB81FB89002B1AD07B69FE2BCC
:1059480012D8BB89184601F067FF03461C467B69DD
:105958005A1C7A615B007A6813441B88184601F068
:105968005BFF03469C4201D0002322E0BB89FB81F8
:1059780006E0BB894FF6FF72934201D0002318E07E
:105988003B6901333B613B690C2BC8D93B681B78E9
:1059980003F04003002B0BD0FB89002B08D07B6958
:1059A8005B007A6813441B88002B01D0002300E0B9
:1059B800012318461C37BD4690BD00BF387D00083E
:1059C80080B588B000AFF860B96011461A460B463A
:1059D800FB711346BB71BB680D33BA791A70BB688B
:1059E8000B330F221A70BB680C3300221A70BB6885
:1059F8001A3300211846FEF740FFFB795A1E13465A
:105A08005B0013449B001344FB610023FB820023CB
:105A1800BB61FB8A4FF6FF72934207D0FB695A1CA1
:105A2800FA615B00FA6813441B88FB82174ABB695A
:105A380013441B781A46BB681344FA8A1146184661
:105A4800FEF71BFFFB8A002B02D14FF6FF73FB8288
:105A5800BB690133BB61BB690C2BDAD9FB8A4FF6F2
:105A6800FF72934206D0FB695B00FA6813441B88F7
:105A7800002B03D1FB7943F04003FB71BB68FA7933
:105A88001A7000BF2037BD4680BD00BF387D0008B2
:105A980080B58CB000AFF860B9607A603B600B22CB
:105AA800B968F868FEF730FF3B68052B2BD93B68CF
:105AB800FB6122E07B689A1C7A601B887B84002348
:105AC800BB6217E0FB695A007B8C03F001031344A7
